:020000040000FA
:100000000C9435000C945D000C945D000C945D0024
:100010000C945D000C945D000C945D000C945D00EC
:100020000C945D000C945D000C945D000C945D00DC
:100030000C945D000C945D000C945D000C945D00CC
:100040000C94A8020C945D000C9418030C94F2021A
:100050000C945D000C945D000C945D000C945D00AC
:100060000C945D000C945D00760411241FBECFEF4C
:10007000D8E0DEBFCDBF22E0AEEEB1E001C01D9200
:10008000A439B207E1F711E0A0E0B1E0E0E3FCE061
:1000900002C005900D92AE3EB107D9F710E0C5E35E
:1000A000D0E004C02197FE010E941006C433D1079E
:1000B000C9F70E944A030C9416060C940000AF92F4
:1000C000BF92CF92DF92EF92FF920F931F93CF9345
:1000D000DF936C017B018B01040F151FEB015E01A7
:1000E000AE18BF08C017D10759F06991D601ED913C
:1000F000FC910190F081E02DC6010995892B79F7DB
:10010000C501DF91CF911F910F91FF90EF90DF908C
:10011000CF90BF90AF900895FC01538D448D252F53
:1001200030E0842F90E0821B930B541710F0CF9691
:10013000089501970895FC01918D828D981761F0C3
:10014000A28DAE0FBF2FB11D5D968C91928D9F5FDA
:100150009F73928F90E008958FEF9FEF0895FC01B9
:10016000918D828D981731F0828DE80FF11D858D6C
:1001700090E008958FEF9FEF08952FB7F894809146
:10018000F3019091F401A091F501B091F6012FBF18
:100190008093FF0190930002A0930102B0930202AA
:1001A00087EF91E00E94AF0097FF26C02FB7F89429
:1001B0008091F3019091F401A091F501B091F601C5
:1001C0002FBF4091FF015091000260910102709198
:1001D0000202841B950BA60BB70B4091FB015091BB
:1001E000FC016091FD017091FE0184179507A6073F
:1001F000B707B0F28FEF9FEF0895CF92DF92EF92A3
:10020000FF92CF930E94BD00FC0197FD4EC08D323E
:10021000910521F0C0970A9708F040C0C12CD12C5D
:100220007601C0E0E130F105D1F0ED32F105D9F110
:10023000CF01C0970A9798F4AAE0B0E0A701960111
:100240000E949E056F01FF0FEE08FF08C60ED71E25
:10025000E81EF91E80E3C81AD108E108F10887EF0B
:1002600091E00E949B000E94BD00FC01C0970A978C
:10027000C8F2E130F105B1F2CC2341F0F094E09402
:10028000D094C094C11CD11CE11CF11CC701B60163
:10029000CF91FF90EF90DF90CF90089587EF91E09E
:1002A0000E949B00AFCFC1E0DACFC12CD12C7601E8
:1002B000EDCFFC01918D228D892F90E0805C9F4FC6
:1002C000821B91098F739927089587EF91E00E940F
:1002D000590121E0892B09F420E0822F089580E064
:1002E00090E0892B29F00E94650181110C94000097
:1002F0000895FC01A48DA80FB92FB11DA35ABF4FBB
:100300002C91848D90E001968F739927848FA68914
:10031000B7892C93A089B1898C91837080648C9368
:10032000938D848D981306C00288F389E02D808117
:100330008F7D80830895EF92FF920F931F93CF9349
:10034000DF93EC0181E0888F9B8D8C8D98131AC010
:10035000E889F989808185FF15C09FB7F894EE89F7
:10036000FF896083E889F989808183708064808354
:100370009FBF81E090E0DF91CF911F910F91FF909F
:10038000EF900895F62E0B8D10E00F5F1F4F0F7347
:100390001127E02E8C8D8E110CC00FB607FCFACF02
:1003A000E889F989808185FFF5CFCE010E94790126
:1003B000F1CFEB8DEC0FFD2FF11DE35AFF4FF082D3
:1003C0009FB7F8940B8FEA89FB8980818062CFCF39
:1003D000CF93DF93EC01888D8823B9F0AA89BB897C
:1003E000E889F9898C9185FD03C0808186FD0DC067
:1003F0000FB607FCF7CF8C9185FFF2CF808185FF88
:10040000EDCFCE010E947901E9CFDF91CF91089520
:10041000FC0101900020E9F73197AF01481B590B0F
:10042000BC0187EF91E00C945F00CF93DF930E94B3
:100430000802EC0182E191E00E9408028C0F9D1FEE
:10044000DF91CF9108958F929F92AF92BF92CF92FA
:10045000DF92EF92FF920F931F93CF93DF93CDB76D
:10046000DEB7A1970FB6F894DEBF0FBECDBF6C010B
:10047000990FEE08FF08F7FE47C06DE287EF91E0A5
:100480000E949B018C0122273327A9012C193D09C9
:100490004E095F0919A2CE0181967C019AE0892E4E
:1004A000912CA12CB12CCA01B901A50194010E9483
:1004B000EE05605DF70162937F012115310541056D
:1004C000510589F790E080E0309719F0CF010E9444
:1004D0000802080F191F82E191E00E940802800FB4
:1004E000911FA1960FB6F894DEBF0FBECDBFDF916E
:1004F000CF911F910F91FF90EF90DF90CF90BF9021
:10050000AF909F908F900895A701960119A28E0138
:100510000F5D1F4F8AE0C82ED12CE12CF12CCA01AF
:10052000B901A70196010E94EE05605DF801629392
:100530008F01211531054105510589F7309729F0C3
:10054000CF010E9408028C01C6CF10E000E0C3CFAB
:100550001F920F920FB60F9211242F933F938F93F8
:100560009F93AF93BF938091F3019091F401A09179
:10057000F501B091F6013091F20123E0230F2D3700
:1005800058F50196A11DB11D2093F2018093F3014E
:100590009093F401A093F501B093F6018091EE01E0
:1005A0009091EF01A091F001B091F1010196A11D90
:1005B000B11D8093EE019093EF01A093F001B093F1
:1005C000F101BF91AF919F918F913F912F910F902A
:1005D0000FBE0F901F90189526E8230F0296A11DBD
:1005E000B11DD2CF1F920F920FB60F9211242F93ED
:1005F0003F934F935F936F937F938F939F93AF93AB
:10060000BF93EF93FF9387EF91E00E947901FF91F1
:10061000EF91BF91AF919F918F917F916F915F917A
:100620004F913F912F910F900FBE0F901F901895F3
:100630001F920F920FB60F9211242F938F939F93B7
:10064000EF93FF93E0910702F09108028081E0911F
:100650000D02F0910E0282FD1BC09081809110026C
:100660008F5F8F7320911102821741F0E091100289
:10067000F0E0E950FE4F958F80931002FF91EF91CB
:100680009F918F912F910F900FBE0F901F901895F3
:100690008081F4CF789484B5826084BD84B5816014
:1006A00084BD85B5826085BD85B5816085BD80913D
:1006B0006E00816080936E001092810080918100B5
:1006C00082608093810080918100816080938100AD
:1006D000809180008160809380008091B10084606F
:1006E0008093B1008091B00081608093B0008091D0
:1006F0007A00846080937A0080917A00826080938F
:100700007A0080917A00816080937A0080917A00EB
:10071000806880937A001092C100E0910702F09106
:10072000080282E08083E0910302F09104021082CB
:10073000E0910502F09106028FEC808310920F0287
:10074000E0910B02F0910C0286E08083E0910902B7
:10075000F0910A02808180618083E0910902F0912A
:100760000A02808188608083E0910902F0910A0288
:10077000808180688083E0910902F0910A02808183
:100780008F7D808370E0A72E70E0B72E85E191E029
:100790000E94150286E391E00E94150281E491E037
:1007A0000E941502CC24C394D12C87EF91E00E94C3
:1007B0005901892BA1F481E0C816D104B1F3C130ED
:1007C000D105A1F0C230D105E1F1A114B104F1F2DB
:1007D0000E9465018823D1F20E940000D7CF0E94B9
:1007E000FD00EB0152E0C52ED12CDFCF88E491E073
:1007F0000E94080242E0C42ED12C87EF91E00E94B3
:100800005901892BA1F482E0C816D104B1F38CE61A
:1008100091E00E940802C801880F991F880F991F54
:100820000E94230282E191E00E940802CECF0E9442
:10083000FD008B01CB010E94230233E0C32ED12C9B
:10084000DCCF80E991E00E94080287EF91E00E94EE
:100850005901892BC1F5C230D105B9F389EA91E07C
:100860000E94080293E0C92ED12C87EF91E00E94EC
:100870005901892B89F583E0C816D104B1F385ECC1
:1008800091E00E940802B801012E000C880B990B20
:100890000E94A50420E030E040E05FE30E94E00415
:1008A0002B013C01B7010F2C000C880B990B0E9407
:1008B000A5049B01AC01C301B2010E94E0040E94A7
:1008C000B805CB01ADCF0E94FD008B01CB010E948A
:1008D0002302C3E0D0E0B9CF0E94FD007B01CB0131
:1008E0000E94230284E0C82ED12CBFCFE7EFF1E0B5
:1008F0001382128288EE93E0A0E0B0E084839583B7
:10090000A683B78384E091E09183808385EC90E0B7
:100910009587848784EC90E09787868780EC90E0C9
:10092000918B808B81EC90E0938B828B82EC90E0BA
:10093000958B848B86EC90E0978B868B118E128E34
:10094000138E148E0895E89409C097FB3EF4909599
:100950008095709561957F4F8F4F9F4F9923A9F098
:10096000F92F96E9BB279395F69587957795679527
:10097000B795F111F8CFFAF4BB0F11F460FF1BC06B
:100980006F5F7F4F8F4F9F4F16C0882311F096E9FE
:1009900011C0772321F09EE8872F762F05C06623AC
:1009A00071F096E8862F70E060E02AF09A95660F65
:1009B000771F881FDAF7880F9695879597F908951E
:1009C0000E94F3040C9464050E94560538F00E94BE
:1009D0005D0520F0952311F00C944D050C94530502
:1009E00011240C9498050E94750570F3959FC1F32E
:1009F000950F50E0551F629FF001729FBB27F00DCD
:100A0000B11D639FAA27F00DB11DAA1F649F662721
:100A1000B00DA11D661F829F2227B00DA11D621F70
:100A2000739FB00DA11D621F839FA00D611D221F2A
:100A3000749F3327A00D611D231F849F600D211D0E
:100A4000822F762F6A2F11249F5750409AF0F1F091
:100A500088234AF0EE0FFF1FBB1F661F771F881FFA
:100A600091505040A9F79E3F510580F00C944D05E0
:100A70000C9498055F3FE4F3983ED4F38695779500
:100A80006795B795F795E7959F5FC1F7FE2B880FA0
:100A9000911D9695879597F9089597F99F6780E836
:100AA00070E060E008959FEF80EC089500240A94C0
:100AB0001616170618060906089500240A94121639
:100AC0001306140605060895092E0394000C11F46C
:100AD000882352F0BB0F40F4BF2B11F460FF04C019
:100AE0006F5F7F4F8F4F9F4F089557FD9058440F72
:100AF000551F59F05F3F71F04795880F97FB991F7D
:100B000061F09F3F79F08795089512161306140639
:100B1000551FF2CF4695F1DF08C0161617061806C6
:100B2000991FF1CF86957105610508940895E894A1
:100B3000BB2766277727CB0197F908950E94A9055F
:100B4000A59F900DB49F900DA49F800D911D112421
:100B50000895A29FB001B39FC001A39F700D811D96
:100B60001124911DB29F700D811D1124911D0895B6
:100B70000E94BF056894B1110C94980508950E94D5
:100B80007D0588F09F5798F0B92F9927B751B0F09D
:100B9000E1F0660F771F881F991F1AF0BA95C9F701
:100BA00014C0B13091F00E949705B1E008950C9403
:100BB0009705672F782F8827B85F39F0B93FCCF3B6
:100BC000869577956795B395D9F73EF4909580957E
:100BD000709561957F4F8F4F9F4F0895A1E21A2E18
:100BE000AA1BBB1BFD010DC0AA1FBB1FEE1FFF1FD1
:100BF000A217B307E407F50720F0A21BB30BE40B21
:100C0000F50B661F771F881F991F1A9469F7609567
:100C10007095809590959B01AC01BD01CF01089521
:100C2000EE0FFF1F0590F491E02D0994F894FFCF8B
:100C3000000000009B015F008C00E80159019B004F
:100C4000AF000D0A004D656E6361726920686173C3
:100C5000696C20646172692062656C6168206B65F3
:100C6000747570617400312E4B656C696C696E67C8
:100C700000322E4C75617300616E6461206D656D8C
:100C8000696C6968206B656C696C696E672C206D96
:100C90006173756B616E2073203A2000686173691F
:100CA0006C206F7065726173692064617269206283
:100CB000656C6168206B657475706174203A200002
:100CC000616E6461206D656D696C6968206C756129
:100CD000732C206431203A200053696C616B616E83
:100CE000206D6173756B616E206E696C6169206443
:100CF00032203A2000686173696C206F7065726100
:100D000073692064617269206C7561732062656C1F
:0E0D10006168206B657475706174203A200074
:107E0000112484B714BE81FFF0D085E080938100F7
:107E100082E08093C00088E18093C10086E0809377
:107E2000C20080E18093C4008EE0C9D0259A86E02C
:107E300020E33CEF91E0309385002093840096BBD3
:107E4000B09BFECF1D9AA8958150A9F7CC24DD24C4
:107E500088248394B5E0AB2EA1E19A2EF3E0BF2EE7
:107E6000A2D0813461F49FD0082FAFD0023811F036
:107E7000013811F484E001C083E08DD089C08234E0
:107E800011F484E103C0853419F485E0A6D080C0E4
:107E9000853579F488D0E82EFF2485D0082F10E0AE
:107EA000102F00270E291F29000F111F8ED06801E7
:107EB0006FC0863521F484E090D080E0DECF843638
:107EC00009F040C070D06FD0082F6DD080E0C81688
:107ED00080E7D80618F4F601B7BEE895C0E0D1E017
:107EE00062D089930C17E1F7F0E0CF16F0E7DF06D8
:107EF00018F0F601B7BEE89568D007B600FCFDCFD4
:107F0000A601A0E0B1E02C9130E011968C91119780
:107F100090E0982F8827822B932B1296FA010C0160
:107F200087BEE89511244E5F5F4FF1E0A038BF0790
:107F300051F7F601A7BEE89507B600FCFDCF97BE46
:107F4000E89526C08437B1F42ED02DD0F82E2BD052
:107F50003CD0F601EF2C8F010F5F1F4F84911BD097
:107F6000EA94F801C1F70894C11CD11CFA94CF0C13
:107F7000D11C0EC0853739F428D08EE10CD085E9AC
:107F80000AD08FE07ACF813511F488E018D01DD067
:107F900080E101D065CF982F8091C00085FFFCCF94
:107FA0009093C60008958091C00087FFFCCF809118
:107FB000C00084FD01C0A8958091C6000895E0E648
:107FC000F0E098E1908380830895EDDF803219F02E
:107FD00088E0F5DFFFCF84E1DECF1F93182FE3DFCA
:107FE0001150E9F7F2DF1F91089580E0E8DFEE27F6
:047FF000FF270994CA
:027FFE00040479
:00000001FF
